:020000040800F2
:10000000B004002045010008B1020008A902000860
:10001000AD0200088D0100086F0900080000000013
:10002000000000000000000000000000E9040008DB
:1000300091010008000000005D030008710600083F
:100040005F0100085F0100085F0100085F01000810
:100050005F0100085F0100085F0100085F01000800
:100060005F0100085F0100085F0100085F010008F0
:100070005F0100085F0100085F0100085F010008E0
:100080005F0100085F0100085F0100085F010008D0
:100090005F0100085F0100085F0100085F010008C0
:1000A0005F0100085F0100085F0100085F010008B0
:1000B000D50600085F0100085F0100085F01000825
:1000C0005F0100085F0100085F0100085F01000890
:1000D0005F010008D90600085F0100085F01000801
:1000E0005F0100085F0100085F0100085F01000870
:1000F0005F0100085F0100085F0100085F01000860
:100100005F0100085F0100085F0100085F0100084F
:100110005F0100085F0100085F0100085F0100083F
:100120005F0100085F0100085F0100085F0100082F
:10013000DFF80CD000F018F800480047CF0900089D
:10014000B00400200648804706480047FEE7FEE767
:10015000FEE7FEE7FEE7FEE7FEE7FEE7FEE7FEE777
:100160007506000831010008064C074D06E0E068FE
:1001700040F0010394E8070098471034AC42F6D3EE
:10018000FFF7DAFFEC1000080C11000800BFFEE7D3
:1001900070472DE9F041024600250026002000238B
:1001A0000024002791F803C00CF00F0591F803C05C
:1001B0000CF0100CBCF1000F03D091F802C04CEA17
:1001C000050591F800C0BCF1000F31D01468002083
:1001D0002BE04FF0010C0CFA00F3B1F800C00CEA70
:1001E00003069E4220D183004FF00F0C0CFA03F758
:1001F000BC4305FA03FC4CEA040491F803C0BCF1CB
:10020000280F06D14FF0010C0CFA00FCC2F814C004
:100210000AE091F803C0BCF1480F05D14FF0010C82
:100220000CFA00FCC2F810C0401C0828D1D314609E
:10023000B1F800C0BCF1FF0F34DD546800202EE09F
:1002400000F1080C4FF0010808FA0CF3B1F800C0F7
:100250000CEA03069E4221D183004FF00F0C0CFAEA
:1002600003F7BC4305FA03FC4CEA040491F803C00D
:10027000BCF1280F05D100F1080C08FA0CF8C2F8FF
:10028000148091F803C0BCF1480F07D100F1080CAD
:100290004FF0010808FA0CF8C2F81080401C08283A
:1002A000CED35460BDE8F08100BFFEE700BFFEE79B
:1002B000704708B51C208DF8000000208DF8010063
:1002C00001208DF802008DF80300684600F00EF85A
:1002D00025208DF8000001208DF801008DF8020026
:1002E0008DF80300684600F001F808BD70B50021E4
:1002F00000230F22C47804B3154C246804F4E0648E
:10030000C4F5E064210AC1F10403CA40447804FA48
:1003100003F184781440214309010E4C0678A1555D
:10032000047804F01F050124AC4005786D11AD0080
:1003300005F1E025C5F8004109E0047804F01F0547
:100340000124AC40044D0678761145F8264070BD76
:100350000CED00E000E400E080E100E07047000008
:1003600029B1064AD2690243044BDA6104E0034A28
:10037000D2698243014BDA617047000000100240ED
:1003800029B1064A12690243044B1A6104E0034A88
:1003900012698243014B1A6170470000001002404D
:1003A00029B1064A92690243044B9A6104E0034A68
:1003B00092698243014B9A6170470000001002402D
:1003C00029B1064AD2680243044BDA6004E0034ACA
:1003D000D2688243014BDA6070470000001002408F
:1003E00010B5002000F074F801210846FFF7B8FFAF
:1003F000012144F26400FFF7D3FF10BD30B50021A6
:100400000022002400232D4D6D6805F00C0121B160
:10041000042905D0082923D105E0294D056022E0F3
:10042000274D05601FE0254D6D6805F47012234DC2
:100430006D6805F48034022505EB92421CB9214D0C
:10044000554305600BE01D4D6D6805F400351DB189
:100450001C4D5543056002E0194D5543056002E00F
:10046000174D056000BF00BF144D6D6805F0F00129
:100470000909154D6B5C0568DD4045600F4D6D68E1
:1004800005F4E061090A104D6B5C4568DD4085604C
:100490000A4D6D6805F46051C90A0B4D6B5C4568E7
:1004A000DD40C560054D6D6805F44041890B074D81
:1004B0006B5CC568B5FBF3F5056130BD001002400B
:1004C00000127A0000093D001400002024000020E2
:1004D00001460020034A506820F4E0600843506061
:1004E0007047000000100240704710B500F002F89D
:1004F00010BD00000CB5002001900090334800684A
:1005000040F480303149086000BF3048006800F492
:10051000003000900198401C0190009818B9019893
:10052000B0F5A06FF1D12948006800F4003010B197
:100530000120009001E0002000900098012843D1A4
:100540002348006840F01000214908600846006810
:1005500020F0030008600846006840F002000860D0
:100560001A4840681949486008464068486008468B
:10057000406840F4806048600846406820F47C1081
:1005800048600846406840F4E81048600846006843
:1005900040F08070086000BF0C48006800F00070F8
:1005A0000028F9D00948406820F003000749486056
:1005B0000846406840F00200486000BF03484068B9
:1005C00000F00C000828F9D10CBD0000001002401A
:1005D0000020024030B50146B1F1807F01D30120F7
:1005E00030BD21F07F40401E4FF0E0225061501797
:1005F0000F22002807DA13071D0E094B00F00F0425
:10060000241F1D5503E013071C0E064B1C5400BF8E
:1006100000204FF0E0229061072010610020DFE70A
:1006200018ED00E000E400E031B50F4800680F4924
:10063000B0FBF1F52846FFF7CDFF002408E000BF2E
:100640004FF0E020006900F480300028F8D0641CEE
:1006500000988442F3D34FF0E020006920F00100BD
:100660004FF0E021086138BD0000002040420F003B
:100670007047000010B51348006840F001001149B0
:10068000086008464068104908400E49486008461E
:1006900000680E4908400B4908600846006820F4CD
:1006A000802008600846406820F4FE0048604FF44F
:1006B0001F008860FFF719FF4FF0006004490860D1
:1006C00010BD0000001002400000FFF8FFFFF6FE22
:1006D00008ED00E07047000010B540F225510848D1
:1006E00000F081F850B12021054800F00BF80448D3
:1006F00000F034F9C4B2204600F0A4FA10BD0000A6
:100700000038014001F40072B2F5007F00D100BF53
:10071000CA430280704721B1828942F4005282812B
:1007200004E082894DF6FF731A4082817047000011
:1007300010B504462048844209D101218803FFF7FF
:100740003FFE00214FF48040FFF73AFE32E01B48A5
:10075000844209D101214804FFF712FE00214FF421
:100760000030FFF70DFE25E01548844209D1012134
:100770008804FFF705FE00214FF48020FFF700FEFC
:1007800018E01048844209D10121C804FFF7F8FDA0
:1007900000214FF40020FFF7F3FD0BE00A488442EC
:1007A00008D101210805FFF7EBFD00214FF480106F
:1007B000FFF7E6FD10BD0000003801400044004096
:1007C00000480040004C004000500040024600201D
:1007D000B1F5007F00D100BF13880B400BB10120A1
:1007E00000E00020704770B5024600240023002579
:1007F000002040F66A16B14200D100BFC1F3421595
:1008000001F01F03012606FA03F3012D02D1968998
:10081000334006E0022D02D1168A334001E0968A69
:1008200033400C12012606FA04F41688344013B142
:100830000CB1012000E0002070BDF0B5034600249B
:1008400000260025002040F66A17B94200D100BFFB
:100850001846C1F3421401F01F06012707FA06F5F6
:10086000012C01D10C3004E0022C01D1103000E049
:1008700014301AB107682F43076002E00768AF43DE
:100880000760F0BD2DE9F04786B005460E4600240E
:10089000A24600BFA1460027B08900B100BF2F4685
:1008A0002C8A4CF6FF700440F08804432C82AC89FB
:1008B0004EF6F3100440B08831890843718908432B
:1008C0000443AC81AC8A4FF6FF400440B089044336
:1008D000AC8201A8FFF792FD1F48874202D1DDF8E4
:1008E00010A001E0DDF80CA0A88900F4004040B1A0
:1008F0000AEBCA0000EB0A1031684900B0FBF1F8BE
:1009000007E00AEBCA0000EB0A1031688900B0FB6F
:10091000F1F86420B8FBF0F004012009642101FB28
:100920001089A88900F4004040B1322000EBC900D2
:10093000B0FBF1F000F00700044308E0322000EBC8
:1009400009106421B0FBF1F000F00F0004432C818A
:1009500006B0BDE8F08700000038014001468888F5
:10096000C0F308007047C1F308028280704700BFDF
:10097000FEE702E008C8121F08C1002AFAD170473A
:100980007047002001E001C1121F002AFBD170470F
:1009900010B500F021FA0020054981F8400081F8E7
:1009A0004100044981F8400081F8410010BD000079
:1009B0002C0000206E00002002465318402B03DB61
:1009C0005318403B98B201E0531898B27047FFF7B4
:1009D00007FDFFF7DDFF00F091F8FFF76AFC03E089
:1009E00000F03EFA00F044F9FAE7000070B5044662
:1009F0000D460020124908600A20FFF715FE002668
:100A00001AE000200E49091D0860C4F1060101EB3F
:100A10008101052202EB4100FFF706FE0120094992
:100A2000C1F8AC01C4F1060101EB8101052202EB22
:100A30004100FFF7F9FD761CAE42E2DB70BD00001D
:100A4000A80123420000234270B504460D46012050
:100A5000124908600A20FFF7E7FD00261AE000208F
:100A60000E49091D0860C4F1060101EB8101052250
:100A700002EB4100FFF7D8FD01200949C1F8AC01A4
:100A8000C4F1060101EB8101052202EB4100FFF7F1
:100A9000CBFD761CAE42E2DB70BD0000A801234214
:100AA000000023422DE9F04106460F46144600257A
:100AB0000EE039463046FFF799FF6420FFF7B4FD9A
:100AC00039463046FFF7C0FF6420FFF7ADFD6D1CCF
:100AD000A542EEDBBDE8F08108B54FF44060ADF80B
:100AE000000003208DF8020010208DF803006946F5
:100AF0000148FFF74EFB08BD0018014010B5FFF795
:100B0000EBFF10BDFEB504462078012804D0022872
:100B100024D0032868D143E001208DF80100A0789B
:100B2000E17801EB810100EB4100217901EBC10289
:100B300002EB011100EB8100617901EB4102C2EB94
:100B4000C11100EBC101A07940F27122504301EBC9
:100B5000001560782946FFF777FF46E002208DF800
:100B60000100A078E17801EB810100EB41002179DF
:100B700001EBC10202EB011100EB8100617901EB95
:100B80004102C2EBC11100EBC101A07940F2712218
:100B9000504301EB001560782946FFF727FF24E05A
:100BA00003208DF80100A078E17801EB810100EBD2
:100BB0004100217901EBC10202EB011100EB810040
:100BC000617901EB4102C2EBC11100EBC101A079D7
:100BD00040F27122504301EB0015E77960783A4604
:100BE0002946FFF75FFF00E000BF00BF55208DF8EA
:100BF000000060788DF80200A0788DF80300E0789E
:100C00008DF8040020798DF8050060798DF80600D4
:100C1000A0798DF80700E0798DF8080008210DF122
:100C2000010000F047F90646300A8DF80900F0B2DD
:100C30008DF80A00AA208DF80B000C21684600F000
:100C4000ABF8FEBD094991F8412091F84110491CCB
:100C5000064B83F841101946885491F841104029F9
:100C600003DB00211A4682F8411070472C00002057
:100C70003EB5474890F84100454991F84010401A68
:100C80000C2811DA424890F841004030404991F870
:100C90004010401A0C287ADB3D4890F841003C494E
:100CA00091F84010884272DA394890F8400038498B
:100CB000085C55285CD191F840000B21FFF77CFEC1
:100CC0003349085CAA2853D1084690F84000401CDC
:100CD00081F84000084690F84000402802DB0020E0
:100CE00081F840002A4890F84050002416E0284837
:100CF00090F840002649085C0DF80400084690F87A
:100D00004000401C81F84000084690F84000402810
:100D100002DB002081F84000601CC4B20A2CE6DB34
:100D20000821684600F0C6F89DF809109DF80820D3
:100D300001EB0221884217D116480088401C154952
:100D40000880134890F84000401C114981F8400089
:100D5000084690F84000402802DB002081F840005F
:100D60006846FFF7CFFE12E0094981F840500EE0D7
:100D7000074890F84000401C054981F840000846AB
:100D800090F84000402802DB002081F840003EBD82
:100D90002C0000202A00002070B50246002000BF71
:100DA00014E0145C0B4B93F8415093F841305B1CFA
:100DB000084E86F8413033465C5593F84130402B5D
:100DC00003DB0023344684F84130401C8842E8DBD2
:100DD00070BD00006E0000201FB51148FFF7A8FC91
:100DE00000F020F84FF4E13000900020ADF804004E
:100DF000ADF80600ADF80800ADF80C000C20ADF819
:100E00000A0069460648FFF73DFD012240F22551E0
:100E10000348FFF712FD01210148FFF77CFC1FBDCD
:100E20000038014008B54FF40070ADF80000032011
:100E30008DF8020018208DF8030069460748FFF777
:100E4000A8F94FF48060ADF8000004208DF803008D
:100E500069460248FFF79DF908BD000000080140FF
:100E600010B5124890F84100104991F8401088429E
:100E70001BD080210E48FFF7A9FCB0B10B4890F8B9
:100E8000402090F84000401C084B83F84000184672
:100E9000815C0748FFF767FD044890F84000402850
:100EA00003DB0020014981F8400010BD6E000020E6
:100EB0000038014070B502460C46FF25FF2309E0CB
:100EC00012F8010B80EA03010648405C80EA050342
:100ED0000548455C201EA4F10106B4B2F0D143EAF6
:100EE000052070BDEC0E0008EC0F000800C1814029
:100EF00001C0804101C0804100C1814001C08041EA
:100F000000C1814000C1814001C0804101C08041D9
:100F100000C1814000C1814001C0804100C18140C9
:100F200001C0804101C0804100C1814001C08041B9
:100F300000C1814000C1814001C0804100C18140A9
:100F400001C0804101C0804100C1814000C1814099
:100F500001C0804101C0804100C1814001C0804189
:100F600000C1814000C1814001C0804101C0804179
:100F700000C1814000C1814001C0804100C1814069
:100F800001C0804101C0804100C1814000C1814059
:100F900001C0804101C0804100C1814001C0804149
:100FA00000C1814000C1814001C0804100C1814039
:100FB00001C0804101C0804100C1814001C0804129
:100FC00000C1814000C1814001C0804101C0804119
:100FD00000C1814000C1814001C0804100C1814009
:100FE00001C0804101C0804100C1814000C0C101F9
:100FF000C30302C2C60607C705C5C404CC0C0DCD89
:101000000FCFCE0E0ACACB0BC90908C8D81819D9F8
:101010001BDBDA1A1EDEDF1FDD1D1CDC14D4D51528
:10102000D71716D6D21213D311D1D010F03031F118
:1010300033F3F23236F6F737F53534F43CFCFD3D48
:10104000FF3F3EFEFA3A3BFB39F9F83828E8E92938
:10105000EB2B2AEAEE2E2FEF2DEDEC2CE42425E5E8
:1010600027E7E62622E2E323E12120E0A06061A158
:1010700063A3A26266A6A767A56564A46CACAD6D08
:10108000AF6F6EAEAA6A6BAB69A9A86878B8B97978
:10109000BB7B7ABABE7E7FBF7DBDBC7CB47475B5A8
:1010A00077B7B67672B2B373B17170B05090915198
:1010B0009353529296565797559594549C5C5D9DC8
:1010C0005F9F9E5E5A9A9B5B9959589888484989B8
:1010D0004B8B8A4A4E8E8F4F8D4D4C8C4484854568
:1010E0008747468682424383418180400C11000835
:1010F000000000202C0000007209000838110008D0
:101100002C000020840400008209000800A24A0488
:1011100000000000000000000102030406070809A7
:10112000000000000102030401020304060708098D
:081130000204060800000000A3
:0400000508000131BD
:00000001FF
